:020000040800F2
:1000000078040020C1010008C9010008CB010008E4
:10001000CD010008CF010008D10100080000000058
:10002000000000000000000000000000D3010008F4
:10003000D501000800000000D701000815140008D1
:10004000DB010008DB010008DB010008DB01000820
:10005000DB010008DB010008DB010008DB01000810
:10006000DB010008DB010008DB010008DB01000800
:10007000DB010008DB010008DB010008DB010008F0
:10008000DB010008DB010008DB010008DB010008E0
:10009000DB010008DB010008DB010008DB010008D0
:1000A000DB010008DB010008DB010008DB010008C0
:1000B000DB010008DB010008DB010008DB010008B0
:1000C000DB010008DB010008DB010008DB010008A0
:1000D000DB01000869150008DB010008DB010008EE
:1000E000DB010008DB010008DB010008DB01000880
:1000F000DB010008DB010008DB010008DB01000870
:10010000DB010008DB010008DB010008DB0100085F
:10011000DB010008DB010008DB010008DB0100084F
:10012000DB010008DB010008DB010008DB0100083F
:10013000DB010008DB010008DB010008DB0100082F
:10014000DB010008DB010008DB010008DB0100081F
:10015000DB010008DB010008DB010008DB0100080F
:10016000DB010008DB010008DB010008DB010008FF
:10017000DB010008DB010008DB01000800000000D3
:10018000DB010008DB010008DB010008DB010008DF
:10019000DB010008DB010008DB010008DB010008CF
:1001A000DB010008DB010008DB010008DFF80CD0F0
:1001B00000F030FE00480047C9190008780400200C
:1001C0000648804706480047FEE7FEE7FEE7FEE7F1
:1001D000FEE7FEE7FEE7FEE7FEE7FEE7591500084B
:1001E000AD01000830B505462A460B4612F8010B52
:1001F00013F8014B08B1A042F8D01CB1002802D07E
:100200006D1CF1E7284630BD0FB400B58DB010A9C4
:1002100009900B9000914FF0FF300A9000200C9055
:1002200005480690054807906A4609A80F9900F00E
:1002300011FD0DB05DF814FB710C00088F0C000867
:10024000F0B480EA0102D40F4200B2EB410F02D2B7
:100250000246084611464A0042D0C30DDDB2C1F342
:10026000C752AD1A202D35DAC1F3160141F4000250
:1002700004B15242C5F1200602FA06F12A411044A7
:10028000B3EBD05F23D0C4B1012DA0EBC35009DC88
:10029000F0BC4FF0004202EAC352DBB200F50000AE
:1002A00000F00FBD400000F1807000EBC350A0F1E2
:1002B000807040EAD170490009E0490841EAC07104
:1002C000A0EBC35000F50000400800EBC350F0BCA9
:1002D00000F0EEBC6142012202EB4101001BF6E797
:1002E000F0BC704781F00041AAE780F00040A7E72A
:1002F0002DE9FE4F81EA030404F0004421F000419F
:1003000000944FF0000B23F0004350EA01045ED04C
:1003100052EA03045BD0C3F30A54C1F30A552C44D8
:10032000A4F2F3340194A0FB0254C1F3130141F48D
:100330008011C3F3130343F4801301FB024400FB59
:10034000034E840A970A44EA815447EA8357A4FB80
:10035000076802958D0A05FB07854FEA932C04FB7D
:100360000C542705029D4FEA065847EA1637B5EBAD
:1003700008056EEB070C870E920E47EA811742EADA
:100380008312A7FB0201B6EB0B0164EB00042B0DFB
:1003900043EA0C335E1844EB1C50DA465146E7FB47
:1003A0000201C5F313044FEA0B3343EA14534FEA37
:1003B0000432019C43EA0603A4F10C040294009C5D
:1003C000CDE900B400F0D8FC03B0BDE8F08F002008
:1003D0000146F9E72DE9F04D81EA030404F0004BF2
:1003E00021F0004514464FF0000A23F0004150EA86
:1003F000050220D054EA01021DD0C5F30A57024677
:10040000C5F31303C1F31300C1F30A5640F480157A
:1004100043F48013A7EB0608101BD64608F2FD38FC
:1004200073EB050002D308F1010801E092185B416B
:10043000B8F1000F03DA00200146BDE8F08D00207E
:100440004FF48011064684460EE0171B73EB050738
:1004500005D3121B63EB050306434CEA010C490864
:100460004FEA300092185B4150EA0107EDD152EAA1
:10047000030012D082EA040083EA0501084305D094
:10048000101BAB4106D20122002306E000224FF0F0
:10049000004302E06FF0010253101AEB06004CEB30
:1004A000085110EB0A0041EB0B01BDE8F04D00F0E4
:1004B00054BCC10F80EAE0700844CA0796230021AB
:1004C00000F0FFBB0EB540F2334102910021CDE9AF
:1004D00000110A460B4600F04FFC03B000BD20F0AF
:1004E0000040C10DC0F3160040F400007F2901DA7E
:1004F00000207047962903DCC1F19601C84070477F
:1005000096398840704700F0004230F000400AD031
:10051000C10D01F56071C0F3160042EA0151C20835
:1005200040071143704700200146704701F0004327
:1005300030B421F0004150EA010206D00A0DA2F5C4
:100540006072C1F31301002A02DC30BC0020704746
:10055000440F44EAC104C100E01830BC00EBC250B3
:1005600000F0A6BB2DE9FF4F1C4681B00021D4E965
:10057000016791464FF0FF358A468846A1696D1C98
:1005800002988847216A834688470028F6D1BBF144
:10059000FF3F0CD026F4C066002F1ADD700615D57B
:1005A000BBF12B0F0AD0BBF12D0F0FD104E04FF0A0
:1005B000FF3005B0BDE8F08F46F48066A1696D1C80
:1005C000029888477F1E8346002F02DDBBF1300F63
:1005D00003D0B9F1000F2AD025E0A1696D1C46F4C3
:1005E00000767F1E029888478346002F05DDBBF109
:1005F000780F06D0BBF1580F03D0B9F1000F10D01F
:1006000011E0B9F1000F02D0B9F1100F0BD1A169BF
:100610006D1C26F400767F1E0298884783461020C2
:1006200000E0082081464FEAE970009017E00A20B8
:10063000F8E74346AAFB092803FB0980DDF800C060
:100640007F1E0AFB0C0112EB0B0A41EBEB78A16950
:1006500046F4007605F10105029888478346002F8D
:1006600006DD4946584600F00BFC5FEA000BE0D57A
:10067000E16902988847B00502D46FF0010098E75D
:10068000F00718D1700610D57005514605D5002326
:10069000D1EB030163EB080200E042462068031D32
:1006A00023600068C0E9001205E02068011D216098
:1006B0000068C0E900A828467BE72DE9FF5F1D46DA
:1006C0004FF0FF3BD5E9014691465F464FF00008E9
:1006D000A9697F1C01988847296A824688470028B3
:1006E000F6D1BAF1FF3F0CD024F4C064002E19DD1E
:1006F000600614D5BAF12B0F09D0BAF12D0F0ED127
:1007000003E0584604B0BDE8F09F44F48064A96952
:100710007F1C01988847761E8246002E02DDBAF1C2
:10072000300F03D0B9F1000F26D032E0A969761E50
:1007300044F400747F1C019888478246002E05DD32
:10074000BAF1780F06D0BAF1580F03D0B9F1000F03
:1007500010D01EE0B9F1000F02D0B9F1100F18D17E
:10076000A969761E24F400747F1C0198884782468C
:10077000102002E0082000E00A20814609E008FB82
:100780000908A969761E44F400747F1C0198884703
:100790008246002E05DD4946504600F071FB0028D8
:1007A000EDDAE96901988847A00502D46FF00100ED
:1007B000A8E7E00725D1600613D5600502D5C8F18A
:1007C000000000E0404629680A1D2A6009682205E9
:1007D00001D5087015E0220701D5088011E00860F6
:1007E0000FE02868011D29600068210502D580F806
:1007F000008006E0210702D5A0F8008001E0C0F8E3
:10080000008038467EE72DE9FF5FD2E901A74FF06F
:100810000008916999461446DDF838B046460198BB
:100820008847054659EA0B0005D009E0A169761C06
:10083000019888470546216A284688470028F5D14F
:10084000681C03D05FEACA7005D015E04FF0FF3096
:1008500004B0BDE8F09F2068011D2160D0F8008041
:100860000AE05FEACA7001D108F8015BA169761C51
:100870007F1E019888470546002F1ADD681C18D096
:10088000B9F1000F0DD0E81705EBD060421120F050
:100890001F0059F822102A1A012090400142E0D18D
:1008A00007E0BBF1000FDCD1216A28468847002809
:1008B000D7D0E16901988847BBF1000F07D1002E1E
:1008C00005DD5FEACA7002D1002188F80010A06837
:1008D000B84203DDBBF1000F03D017B16FF0010088
:1008E000B6E73046B4E700002DE9FF4F087883B043
:1008F0009946FF2805D0491C2D2804D0002400204B
:1009000008E000200BE00124F9E700EB800003EB96
:100910004000491C0B78FF2BF7D104B14042002363
:100920000293147819461D462D2C01D02B2C04D18E
:10093000521C2D2C13D000240294AA461478FF2CAC
:100940000FD00A25A3FB057801FB05814FF0000CB1
:1009500003FB0C11521CE3194AEB0101EEE70124E1
:10096000EAE7814453EA010002D019F5C87F06DAAC
:1009700003980021C0E9001107B0BDE8F08F002501
:10098000AE4E2F46DFF8B882184600F01DFCCDE9C8
:100990000001B9F1000002DAC9F1000400E00446E8
:1009A0000023A74A1AEB030B42EB045A12E0E007BC
:1009B00007D02A46334638464146FFF799FC07469A
:1009C00088462A46334610461946FFF791FC0546ED
:1009D0000E466410002CEAD1DDE90001B9F1000FE8
:1009E0005A46534606DAFFF7F5FC3A464346FFF708
:1009F000F1FC05E0FFF77CFC3A464346FFF778FC44
:100A0000029A0AB181F00041039AC2E90001B3E7FA
:100A10002DE9FF4F1F468DB0D7E901464FF0FF3853
:100A20002E2045464FF000090B90B9696D1C0E98B9
:100A30008847396A824688470028F6D1BAF1FF3FD5
:100A40000AD024F4D064002E11DDBAF12B0F08D0A7
:100A5000BAF12D0F0BD102E0404611B08DE744F4FE
:100A60008064B9696D1C0E9888478246761E694677
:100A7000600501D52D2000E02B208DF8000001F14C
:100A8000010B0DF1200809E0B9696D1C0E9888472B
:100A900082460F9844F40074761E0560002E02DD35
:100AA000BAF1300FF0D00B998A453ED144F0800462
:100AB00006E00F99681CA9F1010944F4007408606C
:100AC000B9696D1C761E0E98884782463028F0D092
:100AD0002BE00B998A4505D1200603D444F080040D
:100AE000761E18E0504601F082F908B30DF11302AA
:100AF000761EAAF1300044F40074934506D20BF838
:100B0000010B200607D5A9F1010003E0200602D45D
:100B100009F101008146A00502D50F99681C086003
:100B2000B9696D1C0E9888478246002ED1DC53E0CF
:100B3000002E51DDBAF1650F02D0BAF1450F4BD14D
:100B4000A00549D5B9696D1C24F44074761E0E9831
:100B500088478246002E0CDD2B2804D0BAF12D0FD9
:100B600007D144F48074B9696D1C0E988847824699
:100B7000761EE00501D52D2100E02B2108F8011B90
:100B8000CDF82C8021E00DF12901761E44F400748B
:100B900088450CD2AAF1300010F0FF0088F8000060
:100BA00002D10B99884509D908F1010806E0E00552
:100BB00001D5244801E042F20F708146B9696D1CED
:100BC0000E98884782460F980560002E04DD504637
:100BD00001F00DF90028D6D1F9690E988847FF2059
:100BE0008BF8000088F800000020069007904B4624
:100BF0006A4608A906A8FFF777FEA00502D46FF0A1
:100C000001002AE714F0240F0AD0E00714D1DDE92F
:100C100006123868031D3B600068C0E900120BE053
:100C2000DDE90601FFF782FC0146E00704D13868E0
:100C3000021D3A600068016028460EE7000014407B
:100C40000000F03FF1D8FFFF026811441378016003
:100C500018467047D160044951610449116200216E
:100C60001161114600F01AB9490C0008770E00080E
:100C7000426842B1016811F8013B23B1521EC0E93C
:100C80000012184670470121C160881E70474268F3
:100C90005AB1C368016843B983688B4205D0491EC5
:100CA000521CC0E90012002070474FF0FF3070471F
:100CB0000029A8BF7047401C490008BF20F0010070
:100CC000704710B4B0FA80FC00FA0CF050EA01044E
:100CD00004BF10BC704749B1CCF1200421FA04F4E0
:100CE00011FA0CF118BF012121430843A3EB0C01B9
:100CF000CB1D4FEA00614FEA102042BF002010BC1C
:100D0000704700EBC35010440029A4BF10BC7047CB
:100D1000401C490008BF20F0010010BC704710B50E
:100D200041000CD0C0F3C751962908DC7E2909DCAC
:100D300006DB410204D000F0004040F07E5010BDC0
:100D4000002010BDC1F19604C4F1200100FA01F1A8
:100D5000E040FFF7ADFFA04010BD10B5141E73F1C9
:100D6000000408DA401C41F1000192185B411A436B
:100D700001D120F0010010BD2DE9F04D92469B46B7
:100D800011B1B1FA81F202E0B0FA80F2203290465D
:100D900000F052F804460F4640EA0A0041EA0B010F
:100DA00053465A46084313D0114653EA010019D05E
:100DB000C8F14002504600F04EF805460E46504637
:100DC0005946424600F038F8084305D0012004E0B7
:100DD00020463946BDE8F08D0020054346EAE0761E
:100DE0002C4337430A986305E40AA0EB080000226D
:100DF000FD0A44EA47540A3002D500200146E9E7DB
:100E0000010510196941DDE9084500196941BDE88E
:100E1000F04DA2E7064C074D06E0E06840F0010304
:100E200094E8070098471034AC42F6D3FFF7C2F9B4
:100E3000DC1E0008FC1E0008202A04DB203A00FA11
:100E400002F1002070479140C2F1200320FA03F321
:100E5000194390407047202A04DB203A21FA02F01F
:100E60000021704721FA02F3D040C2F120029140E4
:100E7000084319467047C0B24FF4F05100F0B0B9C2
:100E80003A2800D2303820F02002412A01D3A2F1C2
:100E90003700884201D34FF0FF3070472DE9F34F00
:100EA0008BB04FF0000801F10C000C464FF0010B25
:100EB00046460DF1080A01906269012101989047A8
:100EC000051E2DD0252D2CD0216A8847C0B162691E
:100ED000012101989047216A88470028F7D1411ED7
:100EE00062690198904700E0761CA1690B988847D9
:100EF000216A88470028F7D1E1690B988847DBE72A
:100F0000A1690B9888470746A84201D1761CD3E710
:100F1000E1690B9888477F1C02D1B8F1000F6FD0B0
:100F200046E1002762693D463946019890472A28E4
:100F300004D162690121019890470125DFF884926C
:100F40006269012101989047A0F130010A290AD273
:100F50004F45E5DC07EB870100EB4107303FDFD46D
:100F600045F01005ECE7E90601D46FF000476C2866
:100F70000AD04C2814D0682815D06A280DD07428BF
:100F80001CD07A281AD01DE062690121019890478F
:100F90006C2802D045F0040514E045F002050DE090
:100FA00045F020050AE06269012101989047682810
:100FB00002D045F0080505E045F4006562690121AD
:100FC00001989047C4E9015765283DD019DC58289D
:100FD0007AD00CDC452837D004DC252826D04128DF
:100FE00031D131E046282FD047282CD12CE05B2886
:100FF00077D0612828D063287CD0642823D15AE098
:10100000D0E06F2848D008DC66281DD067281BD0A8
:10101000692821D06E2816D127E0702845D0732882
:1010200068D0752847D078280DD14DE0A1690B987C
:101030008847054625283FF469AFE1690B98884742
:101040006D1C3FF46AAFB3E023466A466FF00100BF
:101050000B99FFF7DDFC9EE045F040006060A807BB
:1010600023464FF0000236D43EE0E8077FF447AF56
:101070002068011D21600068290501D506701BE765
:10108000290701D5068017E7A90703D5F117C0E99D
:10109000006111E706600FE745F040006060A807B7
:1010A00023464FF0080216D41EE040F60E0125EA52
:1010B0000100606016E045F040006060A80723462C
:1010C0004FF00A0207D40FE045F040006060A80727
:1010D00008D5234610226FF001000B99FFF742FA62
:1010E00059E007E0234610226FF001000B99FFF74B
:1010F000E4FA50E04FF000094F464B46632802D017
:101100005B2806D040E0E80601D40120A06001275A
:101110003AE062690121019890475E2805D14FF0BD
:1011200001096269494601989047216939B900214E
:101130000A46534643F82120491C0829FADBB0B37C
:10114000216969B9C11700EBD16253110AEB830120
:1011500022F01F02821A01200B68904003430B60AB
:1011600062690121019890475D28E8D1B9F1000F2B
:1011700009D00020514651F82020D24341F82020C8
:10118000401C0828F7DB02AB224600976FF00100F5
:101190000B99FFF738FB00280CDA401C08D1BBF193
:1011A000000F05D04FF0FF300DB0BDE8F08FFFE726
:1011B0004046F9E7E90701D108F1010806444FF07C
:1011C000000B79E6CCCCCC0C0EB540F23342029247
:1011D0000022CDE900221346FFF7CEFD03B000BD8B
:1011E0007F2801D9002208E0064A02EB5002C0071E
:1011F000127800D1120902F00F020120904008403D
:10120000704700006E1E000870B589B0DDF834C06C
:101210009E4614460D460646089007910692059391
:101220000898002141610598089988610D980899EE
:10123000086106980899C860079808990860079897
:1012400008998860079808994860CDF810C0CDF8D3
:101250000CE002940195009609B070BD82B0014681
:10126000019001984069B0FA80F04009009102B005
:101270007047000082B00146019001984069019AD0
:101280009269801AB0FA80F04009009102B070476C
:1012900080B588B00A4603460690059106980292EA
:1012A0000193FFF7DBFF002804D0FFE700208DF853
:1012B0001F002BE005980390069800690490FFE753
:1012C000049800280ED0FFE7069881684A1C8260C7
:1012D000087803994A1C03920870FFE704980138C4
:1012E0000490EDE7069801688268C068084482426D
:1012F00004D3FFE7069801688160FFE7069841691B
:101300000139416101208DF81F00FFE79DF81F00A2
:1013100008B080BD82B00146019001980022426170
:10132000019802688260019802684260009102B0F0
:101330007047000080B588B00A46034606900591C4
:10134000069802920193FFF795FF002804D0FFE76B
:1013500000208DF81F002BE0059803900698006987
:101360000490FFE7049800280ED0FFE70398411C83
:101370000391007806994A68531C4B601070FFE790
:10138000049801380490EDE7069801684268C06847
:101390000844824204D3FFE7069801684160FFE7F2
:1013A000069841690131416101208DF81F00FFE776
:1013B0009DF81F0008B080BD80B584B00146029042
:1013C00002980138B0F1807F019103D3FFE701203B
:1013D00003901BE0029801384EF21401CEF2000196
:1013E00008604FF0FF300F2100F0B0F94EF2180006
:1013F000CEF20000002101604EF21000CEF200009B
:101400004FF0070EC0F800E00391FFE7039804B027
:1014100080BD000040F24C00C2F2000001680131C2
:101420000160704786B0002005900490022103916E
:101430000290019143F60800C4F20200006800F037
:101440000C00059005980028009008D0FFE7009850
:1014500004280ED0FFE70098082814D05AE040F284
:101460000000C2F2000042F20041C0F2F40101604B
:101470005AE040F20000C2F2000041F20021C0F246
:101480007A01016050E043F60400C4F202000168F2
:10149000C1F380510291006800F03F000190029872
:1014A000002811D0FFE7019841F20021C0F27A0133
:1014B000B1FBF0F043F60401C4F202010968C1F384
:1014C00088114843049010E0019842F20041C0F2B4
:1014D000F401B1FBF0F043F60401C4F20201096823
:1014E000C1F3881148430490FFE743F60400C4F2B7
:1014F0000200006800F44030022101EBD03003907C
:1015000004980399B0FBF1F040F20001C2F200012F
:10151000086009E040F20000C2F2000042F200411F
:10152000C0F2F4010160FFE743F60800C4F20200D4
:101530000068C0B2000941F6AE61C0F60001085C67
:101540000590059840F20001C2F200010A6822FAF3
:1015500000F0086006B070474EF60850CEF200006A
:101560004FF000610160704780B584B041F2000027
:10157000C4F201000068400600280FD5FFE741F2E1
:101580000000C4F20100016821F04001016040F256
:101590000D00C2F2000001210170FFE741F20000DE
:1015A000C4F2010000688006002840F1B080FFE727
:1015B00041F20000C4F20100016821F02001016045
:1015C00041F20400C4F20100006840F25801C2F286
:1015D0000001087040F21000C2F200000291FFF713
:1015E000A9FE029991F800E040F26C02C2F20002FA
:1015F000136803F1010CC2F800C040F2590CC2F2AA
:10160000000C0CF803E012680F2A019007DBFFE7DB
:1016100040F26C00C2F2000000210160FFE740F2DE
:101620005800C2F2000000780D2813D1FFE740F205
:101630007000C2F200000121017040F26C00C2F2A1
:101640000000016840F25902C2F200020023535424
:101650000360FFE740F27000C2F200000078C007AC
:10166000002853D0FFE70020039040F25900C2F257
:10167000000041F6D161C0F60001FEF7B3FD00287D
:1016800007D1FFE7022000F035FB002000F012F93F
:101690003BE040F25900C2F2000041F6D661C0F6CC
:1016A0000001FEF79FFD002808D1FFE70120009010
:1016B00000F020FB009800F0FDF825E040F2590012
:1016C000C2F2000041F6C861C0F6000103AAFEF7AD
:1016D0009BFD002804D0FFE7039800F0DFF812E03C
:1016E00040F25900C2F2000041F6BE61C0F60001AE
:1016F00003AAFEF789FD002804D0FFE7039800F055
:10170000C1F8FFE7FFE7FFE7FFE7FFE7FFE704B008
:1017100080BD000082B001468DF807009DF90700EA
:10172000002800910FDBFFE79DF9070000F01F0183
:10173000012202FA01F140094EF20012CEF200023B
:1017400042F82010FFE702B07047000084B00A465C
:1017500003468DF80F0002919DF90F0000280192B9
:1017600000930ADBFFE7029800019DF90F104EF28B
:101770000042CEF2000288540BE0029800019DF86E
:101780000F1001F00F014EF61452CEF200028854F1
:10179000FFE704B07047000084B00A4603468DF8A6
:1017A0000F0002919DF90F000028019200930ADBBF
:1017B000FFE7029800019DF90F104EF20042CEF2B1
:1017C000000288540BE0029800019DF80F1001F010
:1017D0000F014EF61452CEF200028854FFE704B017
:1017E0007047000084B001460390039800F00700A2
:1017F00001904EF60C50CEF2000002680292029A5E
:101800004FF6FF031A400292029A019B42EA03221A
:101810000023C0F2FA531A430292029A0260009126
:1018200004B0704780B543F63000C4F2020001688E
:1018300041F04001016041F60000C4F2020001687D
:1018400041F08051016041F60C00C4F202000168D1
:1018500041F08051016000F001F880BD41F61800B0
:10186000C4F20200016841F080410160704700004D
:1018700041F61800C4F20200016841F480410160A1
:101880007047000082B001460190019840F20402C6
:10189000C2F200021060009102B0704782B00146AF
:1018A0000190019840F20802C2F20002106000911B
:1018B00002B0704782B001468DF807009DF807001E
:1018C00040F20C02C2F200021070009102B07047A8
:1018D00080B582B000F086F840F2500EC2F2000EE1
:1018E000DEF800E0A0EB0E0040F2540EC2F2000E53
:1018F000DEF800E0704501D2FFE759E000F072F831
:1019000040F2500EC2F2000ECEF8000040F20C0081
:10191000C2F20000007886460028CDF804E008D026
:10192000FFE7019801280ED0FFE70198022821D097
:1019300037E040F25400C2F200004FF47A710160C7
:1019400000F038F834E0FFF793FF40F2080EC2F2DF
:10195000000EDEF800E040F25400C2F20000C0F8D1
:1019600000E040F20C00C2F200004FF0020E80F8DE
:1019700000E01DE0FFF772FF40F2040EC2F2000E1D
:10198000DEF800E040F25400C2F20000C0F800E0CF
:1019900040F20C00C2F200004FF0010E80F800E0AF
:1019A00006E040F20C00C2F2000001210170FFE7E6
:1019B00002B080BD41F61400C4F20200016881F457
:1019C000804101607047000080B582B00020019026
:1019D00000F00EF8FFF726FFFFE700F099F9FFF798
:1019E00077FFFAE740F24C00C2F20000006870474F
:1019F00080B582B043F60000C4F20200016841F4F1
:101A000080310160FFE743F60000C4F20200006885
:101A100000F40030B0F5003F01D0FFE7F3E743F6F4
:101A20000400C4F2020045F20841C0F24021016006
:101A300043F60000C4F20200016841F080710160C9
:101A4000FFE743F60000C4F20200006800F00070F7
:101A5000B0F1007F01D0FFE7F3E743F60040C4F2A6
:101A6000020040F20571016043F60800C4F2020072
:101A700049F202410160FFE743F60800C4F20200A8
:101A8000006800F00800082801D0FFE7F4E7FFF73E
:101A9000C9FC40F2000EC2F2000EDEF800E044F68F
:101AA000D350C1F26200AEFB000E4FEA9E1E0190C1
:101AB0007046FFF781FC4FF0FF3E0F21009070460B
:101AC000FFF744FE02B080BDB0B598B09C46964684
:101AD0000C46054617908DF85B108DF85A208DF84E
:101AE000593068460121016040F21000C2F2000046
:101AF00040F22C01C2F2000120221392139BCDF878
:101B000048C0CDF844E010940F95FFF77DFB43F6F5
:101B10004400C4F20200016841F01001016040F28B
:101B20000000C2F2000000684008FEF7CBFC41F262
:101B30000C02C4F20102126812040223002A48BFF8
:101B400001230E9018460D91FEF7BCFC4FF00002E9
:101B500040F20003C4F220030C92FEF7C9FB179A6F
:101B60000B9010460A91FEF7ADFC0B9A09901046B7
:101B70000A9B08911946099A089BFEF7B9FB0E9A31
:101B8000079010460D9B06911946079A069BFEF793
:101B900021FCFEF7CBFC15901598FEF7A0FC8DF804
:101BA000530015989DF8531005900846FEF781FCE8
:101BB0000599049008460499FEF794FBFEF7A3FCF0
:101BC00040F20003C4F230030C9AFEF791FBFEF7DB
:101BD000ADFC00F013F9FEF782FC8DF852009DF881
:101BE0005200102809DBFFE700208DF852009DF815
:101BF000530001308DF85300FFE79DF853009DF826
:101C0000521041EA001041F20801C4F201010860DB
:101C100041F21000C4F20100016821F4405101605A
:101C20009DF85910026842EA0131016041F20C004E
:101C3000C4F20100016821F4164101609DF85B10B7
:101C4000026842EA013101609DF85A10026842EAD6
:101C500041210160016841F06C01016041F2140111
:101C6000C4F201010A6822F040020A6043F6300122
:101C7000C4F202010A6842F001020A600021C4F2C3
:101C800002010A6842F420120A600A6822F4A012D3
:101C90000A600C21C4F202010A6842F4A0120A6030
:101CA0000421C4F202010A6822F4C0620A60082119
:101CB000C4F202010A6842F470120A602421C4F2DC
:101CC00002010A6842F4EE620A60032103900846AA
:101CD000FFF788FD252005210290FFF75DFD0298A2
:101CE000FFF718FD0398016841F40051016018B036
:101CF000B0BD000082B001468DF807009DF80700D6
:101D000040F27102C2F200021070009102B07047FE
:101D100080B584B040F27100C2F200000078014644
:101D20000028029108D0FFE70298012813D0FFE7AE
:101D3000029802283CD042E04FF4E13000210191AA
:101D4000019A019BFFF7C0FE40F27100C2F2000051
:101D5000012101703AE040F21000C2F20000FFF7EA
:101D60007DFA002823D1FFE740F20D00C2F2000007
:101D70000078C00700281AD0FFE740F21000C2F236
:101D800000000DF10F01FFF783FA00280ED0FFE7E6
:101D90009DF80F0041F20401C4F20101086040F215
:101DA0000D00C2F2000000210170FFE7FFE70DE027
:101DB00040F21000C2F20000FFF7ACFA06E040F279
:101DC0007100C2F2000000210170FFE704B080BD85
:101DD00002E008C8121F08C1002AFAD170477047F4
:101DE000002001E001C1121F002AFBD170473038EA
:101DF0000A2801D2012070470020704770B50546BF
:101E0000FEF78DFF044601462846FEF76BFA15F0F3
:101E1000004F4FF07F410ED0B0F13F4F28BFB1EBE4
:101E2000400F0ED2B0F17C5F1DDDB1EB400F1AD335
:101E300013E0044617E0B0F13F4F08D9B1EB400F73
:101E400005D34FF07E512046FEF74CFAF1E7B0F192
:101E50007C5F08DBB1EB400F05D34FF07E5120468D
:101E6000FEF7EEF9E5E7284664F31E0070BDDDDD00
:101E7000DDDDDCBBBBDDDDDDDDDDDDDDDDDD988871
:101E8000888888888888777777777788888885555D
:101E900055566666666666666666666888888333D3
:101EA000333222222222222222222228888D00005E
:101EB00000000000000001020304060708096C6529
:101EC000646F66663D2564006C65646F6E3D2564D5
:101ED0000073746F7000737461727400FC1E0008EC
:101EE0000000002010000000D01D00080C1F00089A
:101EF0001000002068040000E01D00080024F40029
:0C1F0000BC0200002C01000001010000E8
:04000005080001C12D
:00000001FF
