:020000040800F2
:1000000020040020C1010008C9010008CB0100083C
:10001000CD010008CF010008D10100080000000058
:10002000000000000000000000000000D3010008F4
:10003000D501000800000000D70100082D070008C6
:10004000DB010008DB010008DB010008DB01000820
:10005000DB010008DB010008DB010008DB01000810
:10006000DB010008DB010008DB010008DB01000800
:10007000DB010008DB010008DB010008DB010008F0
:10008000DB010008DB010008DB010008DB010008E0
:10009000DB010008DB010008DB010008DB010008D0
:1000A000DB010008DB010008DB010008DB010008C0
:1000B000DB010008DB010008DB010008DB010008B0
:1000C000DB010008DB010008DB010008DB010008A0
:1000D000DB01000881080008DB010008DB010008E3
:1000E000DB010008DB010008DB010008DB01000880
:1000F000DB010008DB010008DB010008DB01000870
:10010000DB010008DB010008DB010008DB0100085F
:10011000DB010008DB010008DB010008DB0100084F
:10012000DB010008DB010008DB010008DB0100083F
:10013000DB010008DB010008DB010008DB0100082F
:10014000DB010008DB010008DB010008DB0100081F
:10015000DB010008DB010008DB010008DB0100080F
:10016000DB010008DB010008DB010008DB010008FF
:10017000DB010008DB010008DB01000800000000D3
:10018000DB010008DB010008DB010008DB010008DF
:10019000DB010008DB010008DB010008DB010008CF
:1001A000DB010008DB010008DB010008DFF80CD0F0
:1001B00000F05CFA00480047250B000820040020EE
:1001C0000648804706480047FEE7FEE7FEE7FEE7F1
:1001D000FEE7FEE7FEE7FEE7FEE7FEE77108000840
:1001E000AD010008F0B480EA0102D40F4200B2EB86
:1001F000410F02D20246084611464A0042D0C30DC2
:10020000DDB2C1F3C752AD1A202D35DAC1F31601A4
:1002100041F4000204B15242C5F1200602FA06F18F
:100220002A411044B3EBD05F23D0C4B1012DA0EB21
:10023000C35009DCF0BC4FF0004202EAC352DBB20B
:1002400000F5000000F069B9400000F1807000EB9B
:10025000C350A0F1807040EAD170490009E049081C
:1002600041EAC071A0EBC35000F50000400800EB6C
:10027000C350F0BC00F048B96142012202EB4101D9
:10028000001BF6E7F0BC704781F00041AAE780F060
:100290000040A7E72DE9FE4F81EA030404F0004483
:1002A00021F0004100944FF0000B23F0004350EA8E
:1002B00001045ED052EA03045BD0C3F30A54C1F3D5
:1002C0000A552C44A4F2F3340194A0FB0254C1F368
:1002D000130141F48011C3F3130343F4801301FBB2
:1002E000024400FB034E840A970A44EA815447EA19
:1002F0008357A4FB076802958D0A05FB07854FEA23
:10030000932C04FB0C542705029D4FEA065847EA3C
:100310001637B5EB08056EEB070C870E920E47EA11
:10032000811742EA8312A7FB0201B6EB0B0164EBD3
:1003300000042B0D43EA0C335E1844EB1C50DA46E4
:100340005146E7FB0201C5F313044FEA0B3343EABE
:1003500014534FEA0432019C43EA0603A4F10C044F
:100360000294009CCDE900B400F032F903B0BDE87E
:10037000F08F00200146F9E72DE9F04D81EA0304F2
:1003800004F0004B21F0004514464FF0000A23F022
:10039000004150EA050220D054EA01021DD0C5F305
:1003A0000A570246C5F31303C1F31300C1F30A56FB
:1003B00040F4801543F48013A7EB0608101BD646C3
:1003C00008F2FD3873EB050002D308F1010801E0E3
:1003D00092185B41B8F1000F03DA00200146BDE836
:1003E000F08D00204FF48011064684460EE0171B66
:1003F00073EB050705D3121B63EB050306434CEAB9
:10040000010C49084FEA300092185B4150EA01079D
:10041000EDD152EA030012D082EA040083EA05011A
:10042000084305D0101BAB4106D20122002306E091
:1004300000224FF0004302E06FF0010253101AEB6C
:1004400006004CEB085110EB0A0041EB0B01BDE834
:10045000F04D00F0AEB8C10F80EAE0700844CA0762
:100460009623002100F059B80EB540F233410291B5
:100470000021CDE900110A460B4600F0A9F803B0AF
:1004800000BD20F00040C10DC0F3160040F4000094
:100490007F2901DA00207047962903DCC1F196011B
:1004A000C840704796398840704700F0004230F0ED
:1004B00000400AD0C10D01F56071C0F3160042EA98
:1004C0000151C208400711437047002001467047A0
:1004D00001F0004330B421F0004150EA010206D09F
:1004E0000A0DA2F56072C1F31301002A02DC30BCD0
:1004F00000207047440F44EAC104C100E01830BC3A
:1005000000EBC250AFF300800029A8BF7047401C29
:10051000490008BF20F00100704710B4B0FA80FC19
:1005200000FA0CF050EA010404BF10BC704749B156
:10053000CCF1200421FA04F411FA0CF118BF0121C6
:1005400021430843A3EB0C01CB1D4FEA00614FEAA6
:10055000102042BF002010BC704700EBC350104475
:100560000029A4BF10BC7047401C490008BF20F000
:10057000010010BC704710B541000CD0C0F3C7514A
:10058000962908DC7E2909DC06DB410204D000F054
:10059000004040F07E5010BD002010BDC1F1960417
:1005A000C4F1200100FA01F1E040FFF7ADFFA040E7
:1005B00010BD10B5141E73F1000408DA401C41F19F
:1005C000000192185B411A4301D120F0010010BDD7
:1005D0002DE9F04D92469B4611B1B1FA81F202E04D
:1005E000B0FA80F22032904600F052F804460F46EE
:1005F00040EA0A0041EA0B0153465A46084313D029
:10060000114653EA010019D0C8F14002504600F0EB
:100610004EF805460E4650465946424600F038F818
:10062000084305D0012004E020463946BDE8F08D9E
:100630000020054346EAE0762C4337430A986305D9
:10064000E40AA0EB08000022FD0A44EA47540A30FD
:1006500002D500200146E9E7010510196941DDE9ED
:10066000084500196941BDE8F04DA2E7064C074D69
:1006700006E0E06840F0010394E807009847103472
:10068000AC42F6D3FFF796FDE40E0008040F000815
:10069000202A04DB203A00FA02F100207047914042
:1006A000C2F1200320FA03F3194390407047202A37
:1006B00004DB203A21FA02F00021704721FA02F30C
:1006C000D040C2F120029140084319467047000013
:1006D00080B584B00146029002980138B0F1807F65
:1006E000019103D3FFE7012003901BE0029801383A
:1006F0004EF21401CEF2000108604FF0FF300F21DE
:1007000000F0F8F84EF21800CEF20000002101606F
:100710004EF21000CEF200004FF0070EC0F800E0DD
:100720000391FFE7039804B080BD000040F2100081
:10073000C2F20000016801310160704786B00020FC
:1007400005900490022103910290019143F6080064
:10075000C4F20200006800F00C0005900598002823
:10076000009008D0FFE7009804280ED0FFE700981B
:10077000082814D05AE040F20000C2F2000042F211
:100780000041C0F2F40101605AE040F20000C2F200
:10079000000041F20021C0F27A01016050E043F60E
:1007A0000400C4F202000168C1F3805102910068A4
:1007B00000F03F0001900298002811D0FFE7019857
:1007C00041F20021C0F27A01B1FBF0F043F60401DE
:1007D000C4F202010968C1F388114843049010E093
:1007E000019842F20041C0F2F401B1FBF0F043F68F
:1007F0000401C4F202010968C1F38811484304905E
:10080000FFE743F60400C4F20200006800F4403041
:10081000022101EBD030039004980399B0FBF1F072
:1008200040F20001C2F20001086009E040F200005D
:10083000C2F2000042F20041C0F2F4010160FFE7A1
:1008400043F60800C4F202000068C0B2000940F696
:10085000D261C0F60001085C0590059840F20001E5
:10086000C2F200010A6822FA00F0086006B0704780
:100870004EF60850CEF200004FF000610160704764
:1008800041F20000C4F2010000688006002813D580
:10089000FFE741F20000C4F20100016821F02001ED
:1008A000016041F20400C4F20100006840F21C0142
:1008B000C2F200010870FFE77047000082B00146F5
:1008C0008DF807009DF90700002800910FDBFFE776
:1008D0009DF9070000F01F01012202FA01F1400911
:1008E0004EF20012CEF2000242F82010FFE702B0F2
:1008F0007047000084B00A4603468DF80F0002914D
:100900009DF90F000028019200930ADBFFE702988F
:1009100000019DF90F104EF20042CEF20002885401
:100920000BE0029800019DF80F1001F00F014EF648
:100930001452CEF200028854FFE704B07047000062
:1009400084B00A4603468DF80F0002919DF90F000E
:100950000028019200930ADBFFE7029800019DF94D
:100960000F104EF20042CEF2000288540BE00298C3
:1009700000019DF80F1001F00F014EF61452CEF257
:1009800000028854FFE704B07047000084B00146BD
:100990000390039800F0070001904EF60C50CEF241
:1009A000000002680292029A4FF6FF031A40029278
:1009B000029A019B42EA03220023C0F2FA531A432F
:1009C0000292029A0260009104B0704780B543F62B
:1009D0003000C4F20200016841F04001016041F6BC
:1009E0000000C4F20200016841F08051016041F64C
:1009F0000C00C4F20200016841F08051016000F077
:100A000001F880BD41F61800C4F20200016841F00F
:100A1000804101607047000041F61800C4F20200F6
:100A2000016841F4804101607047000080B582B0E8
:100A300000F08EF840F2140EC2F2000EDEF800E074
:100A4000A0EB0E0040F2180EC2F2000EDEF800E03D
:100A5000704501D2FFE759E000F07AF840F2140E39
:100A6000C2F2000ECEF8000040F20C00C2F200000C
:100A7000007886460028CDF804E008D0FFE701980A
:100A800001280ED0FFE70198022821D037E040F27C
:100A90001800C2F200004FF47A71016000F038F8DB
:100AA00034E0FFF7B9FF40F2080EC2F2000EDEF8A4
:100AB00000E040F21800C2F20000C0F800E040F28E
:100AC0000C00C2F200004FF0020E80F800E01DE0C2
:100AD000FFF798FF40F2040EC2F2000EDEF800E0CD
:100AE00040F21800C2F20000C0F800E040F20C0032
:100AF000C2F200004FF0010E80F800E006E040F284
:100B00000C00C2F2000001210170FFE702B080BDBD
:100B100041F61400C4F20200016881F480410160D2
:100B20007047000080B582B000200190009000F076
:100B300015F84FF4E1300099009A009B00F07AF824
:100B4000FFF744FFFFE700F07BF9FFF76FFFFAE7DD
:100B500040F21000C2F200000068704780B582B019
:100B600043F60000C4F20200016841F480310160E4
:100B7000FFE743F60000C4F20200006800F4003012
:100B8000B0F5003F01D0FFE7F3E743F60400C4F2FD
:100B9000020045F20841C0F24021016043F6000026
:100BA000C4F20200016841F080710160FFE743F682
:100BB0000000C4F20200006800F00070B0F1007F95
:100BC00001D0FFE7F3E743F60040C4F2020040F231
:100BD0000571016043F60800C4F2020049F20241C7
:100BE0000160FFE743F60800C4F20200006800F06D
:100BF0000800082801D0FFE7F4E7FFF79FFD40F267
:100C0000000EC2F2000EDEF800E044F6D350C1F24E
:100C10006200AEFB000E4FEA9E1E01907046FFF789
:100C200057FD4FF0FF3E0F2100907046FFF762FE28
:100C300002B080BDB0B596B09C4696460C460546BF
:100C400015908DF853108DF852208DF8513043F6E1
:100C50004400C4F20200016841F01001016040F25A
:100C60000000C2F2000000684008CDF844C0CDF892
:100C700040E00F940E95FFF7F7FB41F20C02C4F22F
:100C80000102126812040223002A48BF01230D90BA
:100C900018460C91FFF7E8FB4FF0000240F200030A
:100CA000C4F220030B92FFF7F5FA159A0A9010464A
:100CB0000991FFF7D9FB0A9A08901046099B079102
:100CC0001946089A079BFFF7E5FA0D9A0690104619
:100CD0000C9B05911946069A059BFFF74DFBFFF704
:100CE000F7FB13901398FFF7CCFB8DF84B0013988C
:100CF0009DF84B1004900846FFF7ADFB0499039054
:100D000008460399FFF7C0FAFFF7CFFB40F2000354
:100D1000C4F230030B9AFFF7BDFAFFF7D9FB00F0DE
:100D20009FF8FFF7AEFB8DF84A009DF84A001028A7
:100D300009DBFFE700208DF84A009DF84B000130E9
:100D40008DF84B00FFE79DF84B009DF84A1041EAF3
:100D5000001041F20801C4F20101086041F21000E4
:100D6000C4F20100016821F4405101609DF8511066
:100D7000026842EA0131016041F20C00C4F2010054
:100D8000016821F4164101609DF85310026842EA9F
:100D9000013101609DF85210026842EA4121016070
:100DA000016841F02401016041F21401C4F2010123
:100DB0000A6822F040020A6043F63001C4F20201E0
:100DC0000A6842F001020A600021C4F202010A68C6
:100DD00042F420120A600A6822F4A0120A600C2170
:100DE000C4F202010A6842F4A0120A600421C4F2AB
:100DF00002010A6822F4C0620A600821C4F20201FA
:100E00000A6842F470120A602421C4F202010A68DE
:100E100042F4EE620A60032102900846FFF7B6FD35
:100E2000252005210190FFF78BFD0198FFF746FD76
:100E30000298016841F40051016016B0B0BD000095
:100E4000704702E008C8121F08C1002AFAD1704793
:100E50007047002001E001C1121F002AFBD170473A
:100E600070B50546FFF787FB044601462846FFF7A5
:100E70000BFA15F0004F4FF07F410ED0B0F13F4F0D
:100E800028BFB1EB400F0ED2B0F17C5F1DDDB1EB9E
:100E9000400F1AD313E0044617E0B0F13F4F08D9D2
:100EA000B1EB400F05D34FF07E512046FFF7ECF930
:100EB000F1E7B0F17C5F08DBB1EB400F05D34FF0F9
:100EC0007E512046FFF78EF9E5E7284664F31E00C1
:100ED00070BD0000000000000000010203040607CE
:100EE00008090000040F00080000002010000000A6
:100EF000420E0008140F000810000020100400002B
:100F0000520E00080024F400BC0200002C01000076
:040F100001000000DC
:04000005080001C12D
:00000001FF
