:020000040800F2
:1000000010040020C1010008C9010008CB0100084C
:10001000CD010008CF010008D10100080000000058
:10002000000000000000000000000000D3010008F4
:10003000D501000800000000D70100086502000893
:10004000DB010008DB010008DB010008DB01000820
:10005000DB010008DB010008DB010008DB01000810
:10006000DB010008DB010008DB010008DB01000800
:10007000DB010008DB010008DB010008DB010008F0
:10008000DB010008DB010008DB010008DB010008E0
:10009000DB010008DB010008DB010008DB010008D0
:1000A000DB010008DB010008DB010008DB010008C0
:1000B000DB010008DB010008DB010008DB010008B0
:1000C000DB010008DB010008DB010008DB010008A0
:1000D000DB010008DB010008DB010008DB01000890
:1000E000DB010008DB010008DB010008DB01000880
:1000F000DB010008DB010008DB010008DB01000870
:10010000DB010008DB010008DB010008DB0100085F
:10011000DB010008DB010008DB010008DB0100084F
:10012000DB010008DB010008DB010008DB0100083F
:10013000DB010008DB010008DB010008DB0100082F
:10014000DB010008DB010008DB010008DB0100081F
:10015000DB010008DB010008DB010008DB0100080F
:10016000DB010008DB010008DB010008DB010008FF
:10017000DB010008DB010008DB01000800000000D3
:10018000DB010008DB010008DB010008DB010008DF
:10019000DB010008DB010008DB010008DB010008CF
:1001A000DB010008DB010008DB010008DFF80CD0F0
:1001B00000F018F80048004705040008100400206B
:1001C0000648804706480047FEE7FEE7FEE7FEE7F1
:1001D000FEE7FEE7FEE7FEE7FEE7FEE7A90300080D
:1001E000AD010008064C074D06E0E06840F0010351
:1001F00094E8070098471034AC42F6D3FFF7DAFFD3
:100200001C0500083C05000880B584B0014602903A
:1002100002980138B0F1807F019103D3FFE70120FC
:1002200003901BE0029801384EF21401CEF2000157
:1002300008604FF0FF300F2100F0BEF84EF21800BA
:10024000CEF20000002101604EF21000CEF200005C
:100250004FF0070EC0F800E00391FFE7039804B0E9
:1002600080BD000040F20800C2F2000001680131C8
:100270000160704786B00020059004900221039130
:100280000290019143F60800C4F20200006800F0F9
:100290000C00059005980028009008D0FFE7009812
:1002A00004280ED0FFE70098082814D05AE040F246
:1002B0000000C2F2000042F20041C0F2F40101600D
:1002C0005AE040F20000C2F2000041F20021C0F208
:1002D0007A01016050E043F60400C4F202000168B4
:1002E000C1F380510291006800F03F000190029834
:1002F000002811D0FFE7019841F20021C0F27A01F5
:10030000B1FBF0F043F60401C4F202010968C1F345
:1003100088114843049010E0019842F20041C0F275
:10032000F401B1FBF0F043F60401C4F202010968E4
:10033000C1F3881148430490FFE743F60400C4F278
:100340000200006800F44030022101EBD03003903D
:1003500004980399B0FBF1F040F20001C2F20001F1
:10036000086009E040F20000C2F2000042F20041E1
:10037000C0F2F4010160FFE743F60800C4F2020096
:100380000068C0B2000940F20A51C0F60001085CE2
:100390000590059840F20001C2F200010A6822FAB5
:1003A00000F0086006B070474EF60850CEF200002C
:1003B0004FF000610160704784B00A4603468DF833
:1003C0000F0002919DF90F000028019200930ADBB3
:1003D000FFE7029800019DF90F104EF20042CEF2A5
:1003E000000288540BE0029800019DF80F1001F004
:1003F0000F014EF61452CEF200028854FFE704B00B
:100400007047000080B582B00020019000F002F833
:10041000FFE7FEE780B582B043F60000C4F20200B9
:10042000016841F480310160FFE743F60000C4F247
:100430000200006800F40030B0F5003F01D0FFE793
:10044000F3E743F60400C4F2020045F20841C0F2AB
:100450004021016043F60000C4F20200016841F04F
:1004600080710160FFE743F60000C4F202000068FB
:1004700000F00070B0F1007F01D0FFE7F3E743F632
:100480000040C4F2020040F20571016043F608002A
:10049000C4F2020049F202410160FFE743F608009E
:1004A000C4F20200006800F00800082801D0FFE74D
:1004B000F4E7FFF7DFFE40F2000EC2F2000EDEF8B6
:1004C00000E044F6D350C1F26200AEFB000E4FEAEA
:1004D0009E1E01907046FFF797FE4FF0FF3E0F21E2
:1004E00000907046FFF768FF02B080BD02E008C8C8
:1004F000121F08C1002AFAD170477047002001E09E
:1005000001C1121F002AFBD170470000000000004B
:100510000000010203040607080900003C0500086A
:100520000000002004000000EC0400084005000862
:100530000800002008040000FC0400080024F40067
:04000005080001C12D
:00000001FF
